:100000000C9458000C9475000C9475000C947500B9
:100010000C9475000C9475000C9475000C9475008C
:100020000C9475000C9475000C9475000C9475007C
:100030000C9475000C9475000C94BC000C94750025
:100040000C9475000C9475000C9475000C9475005C
:100050000C9475000C9475000C9475000C9475004C
:100060000C9475000C9475003030303030313131E3
:1000700031313241424332334445463334474849B3
:100080003435374B4C35364D4E4F36375051525331
:10009000385455563839575859592A7F7F7F2A2363
:1000A00020D320230104070A020508000306090BD8
:1000B00011241FBECFEFD8E0DEBFCDBF11E0A0E01E
:1000C000B1E0E4EDF4E002C005900D92A430B10778
:1000D000D9F721E0A4E0B1E001C01D92A432B2073B
:1000E000E1F70E944D020C9468020C940000CF923C
:1000F000DF92EF92FF920F931F93CF93DF93D0E0A5
:10010000C0E0D12CE12CF12C082F10E00C5F1E4F29
:1001100085E0C82E0E9418018F3FE9F08D1103C0C1
:10012000CF5FC53008F0C0E0C89EF0011124EC0F8D
:10013000F11DE859FF4F9491F8019083FFEF22E5FC
:1001400037E0F15020403040E1F700C00000D82EE9
:10015000D1E0E12CF12C8FEFE81AF80A9AE0E916C9
:10016000F104C0F28D2FDF91CF911F910F91FF907D
:10017000EF90DF90CF9008951F920F920FB60F92DD
:1001800011241F932F933F934F935F936F937F930C
:100190008F939F93AF93BF93CF93DF93EF93FF938F
:1001A00060E080E00E94C901C4E0D1E01C2F105F34
:1001B00089910E94DA011C13FBCF61E080E00E946C
:1001C000C901C4E1D1E01C2F105F89910E94DA01BE
:1001D0001C13FBCFFF91EF91DF91CF91BF91AF91B6
:1001E0009F918F917F916F915F914F913F912F914F
:1001F0001F910F900FBE0F901F9018958FED87BD28
:1002000084B5826084BD85B5856085BDEEE6F0E08D
:100210008081826080838BB18F708BB98AB1806F4F
:100220008AB98BB18E608BB98AB1817F8AB9089502
:1002300089B1982F9670963021F0A0E0B1E0E0E00F
:1002400007C083FFFACF8FEF0895EF5FE430D9F353
:100250008BB1806F8BB99D918BB189238BB989B19B
:1002600080959BB19F709BB981FF04C0F0E0EC5575
:10027000FF4F0BC082FF04C0F0E0E855FF4F05C000
:1002800083FFE3CFF0E0E455FF4F849108952B9A6C
:1002900082E08A95F1F700C02B980895CF93DF9301
:1002A0001F92CDB7DEB7662311F0299A01C02998B5
:1002B0002A98249A259A269A279A2F982E982D982C
:1002C0002C9887FD2F9A86FD2E9A85FD2D9A84FD08
:1002D0002C9A89830E9447012F982E982D982C984C
:1002E000898183FD2F9A82FD2E9A81FD2D9A80FDB2
:1002F0002C9A0E9447012C9A2D9A2E9A2F9A0F9091
:10030000DF91CF91089529982A9A249825982698C4
:1003100027982B9A82E08A95F1F700C01C9B02C0B7
:1003200080E101C080E01D9980621E9980641F9960
:1003300080682B9892E09A95F1F700C02B9A92E092
:100340009A95F1F700C01C9981601D9982601E99F1
:1003500084601F9988602B9808950E94830187FD0F
:10036000FCCF8AE08A95F1F700C00C948301CF930B
:10037000C82F0E94AD0160E08C2FCF910C944E01EC
:10038000CF93C82F0E94AD0161E08C2FCF910C94C8
:100390004E01611102C0805801C080540C94B70115
:1003A0000E94AD0190E0089581E00C94B70182E0D5
:1003B0000C94B701CF93C82F0E94AD01CA3049F405
:1003C000803410F080E001C080E48058CF910C941C
:1003D000B70161E08C2FCF910C944E01CF93DF9346
:1003E000EC018991882319F00E94DA01FACFDF919C
:1003F000CF910895CF93DF93FC018491EF01219673
:10040000882321F00E94DA01FE01F7CFDF91CF911E
:100410000895CF93C82F219A229A239A249A259A35
:10042000269A279A8FEF9CE70197F1F700C000000A
:100430002D9A2C9A0E9447018FE097E20197F1F7DD
:1004400000C000000E9447019AEA9A95F1F700C0A7
:100450000E9447018AEA8A95F1F700C02C980E9411
:1004600047019AEA9A95F1F700C088E20E94B70125
:1004700088E00E94B7010E94D40186E00E94B70183
:100480008C2FCF910C94B7018CE00E9409020E943E
:10049000FE008FEF87B9789408950E944402C0E06F
:1004A0008C2F0E9477008823D9F3EC2FF0E0EC5FCB
:1004B000FE4F80818F3741F41082C150EC2FF0E065
:1004C000EC5FFE4F108201C0CF5FC03248F3E7CF30
:0404D000F894FFCFCE
:0404D400EFDFBF7F18
:00000001FF
